{
  "contractName": "Dapp",
  "abi": [
    {
      "inputs": [],
      "payable": false,
      "stateMutability": "nonpayable",
      "type": "constructor"
    },
    {
      "constant": true,
      "inputs": [],
      "name": "totalSupply",
      "outputs": [
        {
          "internalType": "uint256",
          "name": "",
          "type": "uint256"
        }
      ],
      "payable": false,
      "stateMutability": "view",
      "type": "function"
    }
  ],
  "bytecode": "0x6080604052348015600f57600080fd5b50620f42406000819055506084806100286000396000f3fe6080604052348015600f57600080fd5b506004361060285760003560e01c806318160ddd14602d575b600080fd5b60336049565b6040518082815260200191505060405180910390f35b6000548156fea265627a7a72315820b46b4c9cf0eb9a30075e9f06ead12d09b194b8657105042b6443cadab05c623b64736f6c63430005100032",
  "source": "pragma solidity ^0.5.16;\r\n\r\ncontract Dapp {\r\n    uint public totalSupply;\r\n    constructor() public{\r\n        totalSupply = 1000000;\r\n    }\r\n}",
  "sourcePath": "E:/Block chain/ERC20-test/contracts/Dapptoken.sol",
  "compiler": {
    "name": "solc",
    "version": "0.5.16+commit.9c3226ce.Emscripten.clang"
  },
  "schemaVersion": "3.4.1",
  "updatedAt": "2021-05-22T13:14:40.254Z",
  "devdoc": {
    "methods": {}
  },
  "userdoc": {
    "methods": {}
  }
}